S00B00004C43442E7372656346
S11300000C942A000C9434000C9434000C943400A6
S11300100C9434000C9434000C9434000C9434008C
S11300200C9434000C9434000C9434000C9434007C
S11300300C9434000C9434000C9434000C9434006C
S11300400C9434000C9434000C9434000C9434005C
S11300500C94340011241FBECFE5D8E0DEBFCDBF21
S11300600E9436000C94A3000C9400000E945600D9
S113007060E070E080E090E00E94830081E40E94F0
S113008092008CE60E949200F3CFAE9882BBAF9AA6
S113009083EF91E00197F1F700C00000AF9883EF80
S11300A091E00197F1F700C0000008952FEB8AED6D
S11300B090E0215080409040E1F700C000008FEFB5
S11300C081BB84B3806C84BB88E30E9445008FECC1
S11300D097E00197F1F700C000008EE00E94450010
S11300E08FEC97E00197F1F700C0000081E00E94D7
S11300F045008FE99FE00197F1F700C0000086E01A
S11301000E9445000895009719F0019731F0089571
S113011080E8860F0E944500089580EC860F0E94B7
S113012045000895AE9A82BBAF9A83EF91E00197A0
S1130130F1F700C00000AF9883EF91E00197F1F769
S10D014000C000000895F894FFCFFA
S9030000FC
