:100000000C942A000C9447000C9447000C94470071
:100010000C9447000C9447000C9447000C94470044
:100020000C9447000C9449000C9447000C94470032
:100030000C9447000C9447000C9447000C94470024
:100040000C9447000C9447000C9447000C94470014
:100050000C94470011241FBECFE5D8E0DEBFCDBF12
:1000600010E0A0E6B0E0E6E1F2E002C005900D92FB
:10007000AC36B107D9F720E0ACE6B0E001C01D9284
:10008000AE36B207E1F70E9460000C9409010C94AF
:1000900000001F920F920FB60F9211248F939F931F
:1000A00080916C0090916D00019690936D0080930B
:1000B0006C009F918F910F900FBE0F901F9018951D
:1000C0000E94820081E08ABB8FEF82BB789484E03B
:1000D00089BF1FBC81E00E94770060E080E00E9441
:1000E000EC006AE080E690E00E94D100F3CFA8988F
:1000F000A99A88BBA99881EE94E00197F1F700C016
:10010000000008958FEF87BB94B3936094BB87BBC7
:1001100087B3836087BB8BE49DE10197F1F700C053
:10012000000082E00E94770085EA9EE00197F1F7E7
:1001300000C0000088E30E94770089EF90E00197FB
:10014000F1F700C000008CE00E94770089EF90E09A
:100150000197F1F700C0000081E00E94770085EA76
:100160009EE00197F1F700C0000086E00E94770052
:1001700083EF91E00197F1F700C000000895A89A7D
:10018000A99A88BBA99881EE94E00197F1F700C085
:100190000000A99A83EC99E00197F1F700C00000F4
:1001A00008950F931F93CF93DF93062F662379F063
:1001B000C82FD92F10E089910E94BF0083EF91E0F2
:1001C0000197F1F700C000001F5F1013F4CFDF911B
:1001D000CF911F910F910895CF939FEF960F90317C
:1001E000B0F4882319F0813051F011C0C0E8C60F77
:1001F0008C2F0E9477008C2F0E94770008C0C0ECE3
:10020000C60F8C2F0E9477008C2F0E947700CF9111
:060210000895F894FFCFF1
:0C021600556C747261736F6E69630000B8
:00000001FF
