S00B00004558542E7372656328
S11300000C942A000C9441000C943F000C943F0083
S11300100C943F000C943F000C943F000C943F0060
S11300200C943F000C943F000C943F000C943F0050
S11300300C943F000C943F000C943F000C943F0040
S11300400C943F000C943F000C943F000C943F0030
S11300500C943F0011241FBECFE5D8E0DEBFCDBF16
S113006010E0A0E6B0E0EEE8F1E002C005900D92E9
S1130070A236B107D9F70E9467000C94C5000C940E
S113008000001F920F920FB60F9211242F933F93EB
S11300904F935F936F937F938F939F93AF93BF938C
S11300A0EF93FF9380E690E00E94B200FF91EF91FE
S11300B0BF91AF919F918F917F916F915F914F917C
S11300C03F912F910F900FBE0F901F90189580E6CF
S11300D090E00E948E008A988BB780648BBF85B7AE
S11300E0826085BF789480E690E00E94A0002FE7AC
S11300F08AE196E0215080409040E1F700C0000082
S113010080E690E00E94B2002FE78AE196E0215059
S113011080409040E1F700C00000E5CFFC01208161
S1130120213069F447B321E030E0B901018002C015
S1130130660F771F0A94E2F7CB01842B87BB0895DF
S1130140FC012081213069F448B321E030E0B90199
S1130150018002C0660F771F0A94E2F7CB01842B5B
S113016088BB0895FC012081213071F448B321E05B
S113017030E0B901018002C0660F771F0A94E2F7EC
S1110180CB018095842388BB0895F894FFCFAB
S105018E01006A
S9030000FC
