S0110000536576656E5F5365672E7372656394
S11300000C942A000C943C000C943C000C943C008E
S11300100C943C000C943C000C943C000C943C006C
S11300200C943C000C943C000C943C000C947A001E
S11300300C943C000C943C000C943C000C943C004C
S11300400C943C000C943C000C943C000C943C003C
S11300500C943C0011241FBECFE5D8E0DEBFCDBF19
S113006020E0A0E6B0E001C01D92A236B207E1F79D
S11300700E94A2000C9404010C94000086B18568CF
S113008086B908959AB321E030E0082E02C0220F09
S1130090331F0A94E2F7209529232ABB87B93D9A96
S11300A0369A349BFECF349A85B190E008959C0132
S11300B0C49AC59848B36AE070E00E94DC00407FAF
S11300C0482B48BB8FE19EE40197F1F700C0000084
S11300D0C59AC49848B3C9016AE070E00E94DC0084
S11300E0407F462B48BB8FE19EE40197F1F700C0A7
S11300F0000008951F920F920FB60F9211242F93B0
S11301003F934F935F936F937F938F939F93AF939B
S1130110BF93EF93FF9380916000909161000E94E0
S11301205700FF91EF91BF91AF919F918F917F9174
S11301306F915F914F913F912F910F900FBE0F9050
S11301401F90189583B7856083BF89B7816089BF85
S113015012BE78948FEF87BB84BB0E943E00C4EF2D
S1130160D1E080E090E00E9442009C012C9FC001FD
S11301702D9F900D3C9F900D1124992314F48150D0
S11301809F4F892F880F880B9093600080936100A4
S113019081E090E00E9442008D37910514F4A89A02
S11301A001C015BA3FE78AE196E0315080409040A3
S11301B0E1F700C00000D5CF97FB072E16F400949A
S11301C007D077FD09D00E94F00007FC05D03EF46B
S11301D0909581959F4F0895709561957F4F0895EF
S11301E0AA1BBB1B51E107C0AA1FBB1FA617B70759
S11301F010F0A61BB70B881F991F5A95A9F7809575
S10F02009095BC01CD010895F894FFCF47
S9030000FC
