:100000000C942A000C9434000C9434000C943400AA
:100010000C9434000C9434000C9434000C94340090
:100020000C9434000C9434000C9434000C94340080
:100030000C9434000C9434000C9434000C94340070
:100040000C9434000C9434000C9434000C94340060
:100050000C94340011241FBECFE5D8E0DEBFCDBF25
:100060000E9436000C944D000C9400008FEF87BB6B
:1000700080E090E030E020E088BB4FEF59E668E197
:10008000415050406040E1F700C0000001968A30C6
:0E009000910594F3832F922FEFCFF894FFCFBA
:00000001FF
