S0110000536576656E5F5365672E7372656394
S11300000C942A000C9434000C9434000C943400A6
S11300100C9434000C9434000C9434000C9434008C
S11300200C9434000C9434000C9434000C9434007C
S11300300C9434000C9434000C9434000C9434006C
S11300400C9434000C9434000C9434000C9434005C
S11300500C94340011241FBECFE5D8E0DEBFCDBF21
S11300600E945F000C94A2000C9400009C01C49AAE
S1130070C59848B36AE070E00E947A00407F482B3C
S113008048BB4FE788E391E0415080409040E1F75E
S113009000C00000C59AC49848B3C9016AE070E082
S11300A00E947A00407F462B48BB2FE748E381E05B
S11300B0215040408040E1F700C0000008958FEFD8
S11300C087BB81BB84BBC0E0D0E000E010E0CE0180
S11300D00E9436002FEF89E698E12150804090403D
S11300E0E1F700C000002196C436D10584F3C02F87
S11300F0D12FEDCF97FB072E16F4009407D077FD90
S113010009D00E948E0007FC05D03EF4909581959D
S11301109F4F0895709561957F4F0895AA1BBB1B4F
S113012051E107C0AA1FBB1FA617B70710F0A61BF3
S1130130B70B881F991F5A95A9F780959095BC0114
S10B0140CD010895F894FFCFEE
S9030000FC
