:100000000C942A000C943C000C943C000C943C0092
:100010000C943C000C943C000C943C000C943C0070
:100020000C943C000C943C000C943C000C9461003B
:100030000C943C000C943C000C943C000C943C0050
:100040000C943C000C943C000C943C000C943C0040
:100050000C943C0011241FBECFE5D8E0DEBFCDBF1D
:1000600020E0A0E6B0E001C01D92A236B207E1F7A1
:100070000E9489000C94D7000C9400009C01C49A43
:10008000C59848B36AE070E00E94AF00407F482BFB
:1000900048BB8FE19EE40197F1F700C00000C59ACC
:1000A000C49848B3C9016AE070E00E94AF00407F85
:1000B000462B48BB8FE19EE40197F1F700C000009A
:1000C00008951F920F920FB60F9211242F933F9312
:1000D0004F935F936F937F938F939F93AF93BF9350
:1000E000EF93FF9380916000909161000E943E0029
:1000F000FF91EF91BF91AF919F918F917F916F9100
:100100005F914F913F912F910F900FBE0F901F90D5
:10011000189583B7856083BF89B7816089BF12BE98
:1001200078948FEF87BB81BB84BB109261001092E3
:1001300060002FEF89E698E1215080409040E1F780
:1001400000C0000080916000909161000196909342
:10015000610080936000843691055CF3E6CF97FBE5
:10016000072E16F4009407D077FD09D00E94C30033
:1001700007FC05D03EF4909581959F4F08957095AA
:1001800061957F4F0895AA1BBB1B51E107C0AA1FB1
:10019000BB1FA617B70710F0A61BB70B881F991F28
:1001A0005A95A9F780959095BC01CD010895F894D2
:0201B000FFCF7F
:00000001FF
