S00B00004C43442E7372656346
S11300000C942A000C9447000C9447000C9447006D
S11300100C9447000C9447000C9447000C94470040
S11300200C9447000C9447000C9447000C94470030
S11300300C9447000C9447000C9447000C94470020
S11300400C9447000C9447000C9447000C94470010
S11300500C94470011241FBECFE5D8E0DEBFCDBF0E
S113006010E0A0E6B0E0E2EAF1E002C005900D92F3
S1130070AC36B107D9F720E0ACE6B0E001C01D9280
S1130080AC36B207E1F70E9449000C94CF000C94FF
S113009000000E94730081E00E94620060E070E052
S11300A080E090E00E94A00080E690E00E94C00002
S11300B02FEF83ED90E3215080409040E1F700C0A2
S11300C00000E9CFC09885BBC19A83EF91E0019706
S11300D0F1F700C00000C19883EF91E00197F1F7B8
S11300E000C0000008952FEB8AED90E0215080407D
S11300F09040E1F700C000008FEF84BB87B38360BA
S113010087BB88E30E9462008FEC97E00197F1F7C8
S113011000C000008EE00E9462008FEC97E001971F
S1130120F1F700C0000081E00E9462008FE99FE0C7
S11301300197F1F700C0000086E00E946200089574
S1130140009719F0019731F0089580E8860F0E9416
S11301506200089580EC860F0E9462000895C09AA0
S113016085BBC19A83EF91E00197F1F700C00000CD
S1130170C19883EF91E00197F1F700C00000089562
S1130180CF93DF93EC018881882331F021960E947C
S1130190AF0089918111FBCFDF91CF910895F8943D
S10501A0FFCF8B
S10F01A2556C747261736F6E6963000029
S9030000FC
