:100000000C942A000C943C000C943C000C943C0092
:100010000C943C000C943C000C943C000C943C0070
:100020000C943C000C943C000C943C000C943E005E
:100030000C943C000C943C000C943C000C943C0050
:100040000C943C000C943C000C943C000C943C0040
:100050000C943C0011241FBECFE5D8E0DEBFCDBF1D
:1000600020E0A0E6B0E001C01D92A236B207E1F7A1
:100070000E945F000C9475000C9400001F920F9278
:100080000FB60F9211248F939F93809160009091EF
:10009000610001969093610080936000089741F49D
:1000A00098B381E0892788BB1092610010926000AC
:1000B0009F918F910F900FBE0F901F901895BB9A34
:1000C00083B78D6683BF80E090E030E020E08CBF96
:1000D000EFECF7E03197F1F700C0000001968F3F99
:0E00E0009105ACF3832F922FF2CFF894FFCF4F
:00000001FF
