S00B00004C43442E7372656346
S11300000C942A000C943F000C943F000C943F0085
S11300100C943F000C943F000C943F000C943F0060
S11300200C943F000C943F000C943F000C943F0050
S11300300C943F000C943F000C943F000C943F0040
S11300400C943F000C943F000C943F000C943F0030
S11300500C943F0011241FBECFE5D8E0DEBFCDBF16
S113006010E0A0E6B0E0E6EAF2E002C005900D92EE
S1130070A039B107D9F70E9499000C9451010C944E
S113008000008FE084BB8FEF85BB089580E090E093
S113009041E050E0F0E0E0E065B39A01082E02C0D0
S11300A0220F331F0A94E2F7722F7095672365BB02
S11300B0A9EFB0E01197F1F700C000009C9B0FC0BE
S11300C09D9B07C09E9B08C09F9922C0E7E0F0E07B
S11300D008C0E5E0F0E005C0E6E0F0E002C0E4E0DE
S11300E0F0E0880F991F880F991FE80FF91FEE0F92
S11300F0FF1FE85AFF4F808195B3292B25BBC29A75
S1130100E3EDF0E33197F1F700C00000C2980895E1
S113011035B3232B25BBA9EFB0E01197F1F700C04D
S113012000000196843091050CF4B6CF8F2F9E2FDA
S1130130B3CF0E94F5000E94410060E070E080E0CF
S113014090E00E94220180E890E00E9442010E9417
S11301504600C82F60E070E081E090E00E94220138
S11301608C2F0E9431012FEF81EE94E021508040CA
S11301709040E1F700C00000C1E0D0E002C0C0E060
S1130180D0E060E070E080E090E00E94220180E82E
S113019090E00E9442010E944600182FBE0181E0B7
S11301A090E00E942201812F0E9431012FEF81EE05
S11301B094E0215080409040E1F700C00000219677
S11301C0C031D105E4F6DDCFDE9882BBDF9A83EF40
S11301D091E00197F1F700C00000DF9883EF91E010
S11301E00197F1F700C0000008952FEB8AED90E02D
S11301F0215080409040E1F700C000008FEF81BBA8
S11302008AB3806C8ABB88E30E94E4008FEC97E099
S11302100197F1F700C000008EE00E94E4008FEC2B
S113022097E00197F1F700C0000081E00E94E4002C
S11302308FE99FE00197F1F700C0000086E00E947B
S1130240E4000895009719F0019731F0089580E8CB
S1130250860F0E94E400089580EC860F0E94E4005B
S11302600895DE9A82BBDF9A83EF91E00197F1F75C
S113027000C00000DF9883EF91E00197F1F700C020
S113028000000895CF93DF93EC018881882331F037
S113029021960E94310189918111FBCFDF91CF9189
S10902A00895F894FFCF5D
S11302A63100320033002500340035003600780072
S11302B63700380039002D00200030003D002B00A7
S11302C6456E7465722070617373776F7264000093
S9030000FC
