S01700004763634170706C69636174696F6E312E737265635B
S11300000C942A000C9434000C9434000C943400A6
S11300100C9434000C9434000C9434000C9434008C
S11300200C9434000C9434000C9434000C9434007C
S11300300C9434000C9434000C9434000C9434006C
S11300400C9434000C9434000C9434000C9434005C
S11300500C94340011241FBECFE5D8E0DEBFCDBF21
S11300600E9400010C9417010C9400009FEF980F5C
S1130070983000F561110DC047B321E030E0B901BB
S113008002C0660F771F9A95E2F7CB01842B87BBDA
S11300900895613091F547B3815021E030E0B90112
S11300A002C0660F771F8A95E2F7CB0180958423FF
S11300B087BB089592EF980F9830F8F461110DC042
S11300C041B321E030E0B90102C0660F771F9A9571
S11300D0E2F7CB01842B81BB0895613071F441B305
S11300E08E5021E030E0B90102C0660F771F8A9577
S11300F0E2F7CB018095842381BB08959FEF980F8D
S1130100983000F5613069F448B321E030E0B9017A
S113011002C0660F771F9A95E2F7CB01842B88BB48
S11301200895611132C048B3815021E030E0B90133
S113013002C0660F771F8A95E2F7CB01809584236E
S113014088BB089592EF980F9830F8F4613069F401
S113015042B321E030E0B90102C0660F771F9A95DF
S1130160E2F7CB01842B82BB089561110EC042B328
S11301708E5021E030E0B90102C0660F771F8A95E6
S1130180E2F7CB018095842382BB08959FEF980FFB
S11301909830B0F496B3282F30E02150310941E073
S11301A050E0022E02C0440F551F0A94E2F7BA0130
S11301B002C0759567952A95E2F79B0129231EC015
S11301C092EF980F9830C8F490B3282F30E02E5057
S11301D0310941E050E0022E02C0440F551F0A9439
S11301E0E2F7892F90E084239523AC0102C0559552
S11301F047952A95E2F79A0101C00895822F089540
S113020060E085E10E94360061E082E10E943600F0
S113021082E10E94C600813029F461E085E10E94F8
S11302207E00F6CF60E085E10E947E00F1CFF89475
S1050230FFCFFA
S9030000FC
