:100000000C942A000C9447000C9447000C94470071
:100010000C9447000C9447000C9447000C94470044
:100020000C9447000C9449000C9447000C94470032
:100030000C9447000C9447000C9447000C94470024
:100040000C9447000C9447000C9447000C94470014
:100050000C94470011241FBECFE5D8E0DEBFCDBF12
:1000600010E0A0E6B0E0EEE4F2E002C005900D92F0
:10007000AC36B107D9F720E0ACE6B0E001C01D9284
:10008000AE36B207E1F70E9460000C9425010C9493
:1000900000001F920F920FB60F9211248F939F931F
:1000A00080916C0090916D00019690936D0080930B
:1000B0006C009F918F910F900FBE0F901F9018951D
:1000C000CF93DF93CDB7DEB72A970FB6F894DEBF94
:1000D0000FBECDBF0E94C90081E08ABB8FEF82BBFB
:1000E000789484E089BF1FBC0F2EF1E4FF2EF02D21
:1000F00000E214E081E00E94B80060E070E080E07F
:1001000090E00E94F60080E690E00E941601D89AE6
:1001100023E02A95F1F70000D8981DBC1CBCFEBC5A
:1001200008BF18BF08B605FEFDCF1DBC1CBC81E092
:100130008EBD08BF18BF10926D0010926C0008B6FB
:1001400005FEFDCF86B597B561E070E081E090E0F7
:100150000E94F600CE0101960E9416018FE996E8F2
:1001600021E0815090402040E1F700C00000C2CF64
:10017000C09885BBC19A83EF91E00197F1F700C069
:100180000000C19883EF91E00197F1F700C00000F3
:1001900008952FEB8AED90E0215080409040E1F7E8
:1001A00000C000008FEF84BB87B3836087BB88E308
:1001B0000E94B8008FEC97E00197F1F700C00000B3
:1001C0008EE00E94B8008FEC97E00197F1F700C035
:1001D000000081E00E94B8008FE99FE00197F1F7ED
:1001E00000C0000086E00E94B8000895009719F052
:1001F000019731F0089580E8860F0E94B8000895B5
:1002000080EC860F0E94B8000895C09A85BBC19A01
:1002100083EF91E00197F1F700C00000C19883EFF0
:1002200091E00197F1F700C000000895CF93DF93AC
:10023000EC018881882331F021960E940501899183
:0E0240008111FBCFDF91CF910895F894FFCF8D
:0C024E0044697374616E6365203D2000FC
:00000001FF
